:060000000A128A1100291A
:100200000C212A2131210313831205183E21851860
:1002100045214C215E210529031783168801890198
:100220000313831605148514061086100611861113
:100230008701081088100811881109100313831210
:10024000850186018701880189013F308700A0016F
:10025000A1010800031383160F140F178F120F1636
:1002600008000313831681128111011581140114F2
:10027000031383123D3081000B11080005183E293D
:10028000A00A200800228700080085184529A0033D
:1002900020080022870008000B1D4C295821860ADF
:1002A000A10AA11C0800A11D0800880AA1010800DC
:1002B000031383123D3081000B110800200808024F
:0E02C000031963210800A1018801890A0800C2
:100400008A018A140F3982073F3406345B344F3433
:1004100066346D347D3407347F346F3477347C3404
:0804200039345E347934713483
:04400E00C430FF3F7C
:00000001FF
